:020000040000FA
:1000000068080020250200006502000009020000C7
:10001000690200006B0200006D0200000000000099
:100020000000000000000000000000006F0200005F
:100030007102000000000000730200007502000061
:1000400077020000770200007702000077020000CC
:1000500077020000770200007702000077020000BC
:1000600077020000770200007702000077020000AC
:10007000770200007702000077020000770200009C
:10008000770200007702000077020000770200008C
:10009000770200007702000077020000770200007C
:1000A000770200007702000077020000770200006C
:1000B000770200007702000077020000770200005C
:1000C00077020000011100007702000077020000B3
:1000D000770200007702000077020000770200003C
:1000E000110B000077020000C1090000D1090000D7
:1000F0007702000077020000E109000077020000AB
:10010000770200007702000077020000770200000B
:1001100077020000770200007702000077020000FB
:1001200077020000770200007702000077020000EB
:1001300077020000770200007702000077020000DB
:1001400077020000770200007702000077020000CB
:1001500077020000770200007702000077020000BB
:1001600077020000770200007702000077020000AB
:10017000770200007702000077020000770200009B
:10018000770200007702000077020000770200008B
:10019000770200007702000077020000770200007B
:1001A000770200007702000077020000770200006B
:1001B000770200007702000077020000770200005B
:1001C000770200007702000077020000770200004B
:1001D000770200007702000077020000770200003B
:1001E000770200007702000077020000770200002B
:1001F00077020000DFF80CD000F08CF800480047D0
:10020000051700006808002004207146084202D04B
:10021000EFF3098001E0EFF308807146004A1047D0
:10022000710A000014484FF0590101604FF01601A7
:1002300001604FF0880101601048416841F480413D
:1002400041600F48416841F002014160416841F05E
:10025000040141600B48804707484FF000010160EE
:1002600009480047FEE7FEE7FEE7FEE7FEE7FEE798
:10027000FEE7FEE7FEE7FEE7000100400002004067
:1002800000700040690F0000F501000040EA010322
:100290009B0703D009E008C9121F08C0042AFAD23C
:1002A00003E011F8013B00F8013B521EF9D2704700
:1002B0002DE9F05F0546002092469B46884606469B
:1002C000814640241BE0284641464746224600F02E
:1002D00042F853465A46C01A914110D31146184667
:1002E000224600F029F82D1A67EB01084F462246F6
:1002F0000120002100F020F817EB00094E41201EDC
:10030000A4F10104DFDC484631462A464346BDE8F5
:10031000F09F0000064C074D06E0E06840F0010346
:1003200094E8070098471034AC42F6D3FFF766FF15
:10033000F018000010190000202A04DB203A00FA0F
:1003400002F1002070479140C2F1200320FA03F32C
:10035000194390407047202A04DB203A21FA02F02A
:100360000021704721FA02F3D040C2F120029140EF
:1003700008431946704700002DE9F041374F384DCA
:1003800000243869072620F00A00386121462846F3
:1003900000F03EFB072300223146284600F028FBF0
:1003A00008239E0332461946284600F021FB092304
:1003B00032461946284600F01BFB0A2332461946EE
:1003C000284600F015FB0120C5F8F800286D40F024
:1003D00004002865D5F8D000802640F08000C5F8DC
:1003E000D0000220C5F8F800286D40F0080028650C
:1003F000D5F8D40040F48060C5F8D4002A2000F07D
:1004000061FB2B2000F05EFB00F0C2FB6E65072055
:1004100007F1140655F8201026F81410401C641C2F
:10042000C0B2E4B20B28F5D30C4D00241C3536F8CD
:10043000141035F814200BA000F00CFF641CE4B27B
:10044000042CF4D33F1D0BA097E80E0000F002FF30
:10045000BDE8F0410DA000F0FDBE0000300000201E
:100460000030044030782533582C30782533582C10
:100470007C000000202C2030782533582C30782543
:1004800033582C3078253358000000000D0A000046
:1004900070B5234D234C0021286920F00400286109
:1004A000204600F0B5FA3F221021204600F0BEFAA7
:1004B0003F221121204600F0B9FA0420C4F8F800C8
:1004C000206D40F010002065D4F8D80040F4803052
:1004D000C4F8D800D4F8D80040F40030C4F8D800EC
:1004E000D4F8D80040F48020C4F8D8002E2000F0C2
:1004F000E9FA4FF4E0206065206C80B26860606CBF
:1005000080B2A860A06C80B2E860206D20F010007E
:10051000206505494FF48040C1F8800170BD00009E
:10052000300000200030044004E000E04FF0804044
:10053000D0F8401241F48031C0F8401270470000FA
:1005400000F01F0201219140034A800F02EB80005E
:1005500002680A4302607047040200402DE9F84F28
:100560000D460446FFF7E2FF4FF08040484ED0F8BA
:100570000012C4B141F00401C0F80012102000F0D4
:1005800009FA4FF400200090424843492844B346FA
:1005900088426DD84FF000094FF0FF324F464E466B
:1005A000AE46012015E041F00101C0F80012012023
:1005B00000F0F0F90020E6E7F2B3032839D0042870
:1005C00002D0022805D102E04FEA8E0501E04FEA91
:1005D0004E0502236AB3BBFBF3F1304CDFF8BCC01D
:1005E0000C44CCF1000C644520D80224C1F35D0A10
:1005F000DFF8A0C00AFB04F101EB0C08DFF8A0C093
:10060000E0450ED8B1EB950F02D9A1EB950101E0C1
:10061000C1EB9501914204D20A009946274606464D
:1006200004D040F20121641C8C42E1D95B1C202BD8
:10063000D0D9401C042800E000E0BDD91948009939
:1006400000EB8630184A084302EB49210843B91EE3
:1006500008434FF08041C1F84002042000F09AF9AD
:1006600006FB09F6BBFBF6F078434000BDE8F88FC7
:100670005CB10E494FF08040C0F84012042000F0F9
:1006800089F9BDE8F84F00F09FB844F21E21F1E768
:10069000001BB700800F05FD8074D21A00F7C2FF5F
:1006A000C068780400C0FFFF00FEFFFF1E42080084
:1006B0004FF08041D1F800220243C1F80022704778
:1006C00010B500F02DFC0148006810BD00000020AE
:1006D0004FF08040D0F80002C00700D000487047BB
:1006E000001BB7004FF08040D0F80002800702D511
:1006F0004FF40040704700207047000010B500F034
:100700000FFC4FF08041D1F834024207134817D054
:10071000D1F8342202F00702012A13D0D1F8342292
:1007200002F00702022A10D0D1F8342202F00702A8
:10073000032A0DD0D1F8341201F0070104290AD0A0
:10074000006810BD0068400810BD0068800810BD3A
:100750000068C00810BD0068000910BD000000203E
:1007600010B500F0DDFB4FF08041D1F8340210F0FD
:10077000700F144817D0D1F83422C2F30212012AA4
:1007800013D0D1F83422C2F30212022A10D0D1F8C9
:100790003422C2F30212032A0DD0D1F83412C1F36D
:1007A000021104290AD0006810BD0068400810BD7D
:1007B0000068800810BD0068C00810BD006800090E
:1007C00010BD00000000002008B510A1002009683D
:1007D00000914FF08041D1F8401211F4A02F13D1B5
:1007E0000B488A0310D4C1F30800C1F38132094BCE
:1007F000801C1DF80220C1F344215843491C11FB01
:1008000002F1B0FBF1F0C00008BD000001020204DB
:10081000001BB700C0C62D0070B54FF080440646DF
:10082000D4F8500200F010051B48864200D9064655
:10083000D4F8000240F00400C4F80002102004F5CF
:10084000007400F0A7F8206940F007002061206ADA
:1008500020F00F0020622068A4F50074C007314624
:1008600004D00020FFF77AFE064608E04FF400208F
:10087000FFF774FE0646D4F8500200F01005002180
:10088000022000F00BF82DB9D4F8000220F004008B
:10089000C4F80002304670BD00B0710B2DE9F04184
:1008A0004FF080440746D4F850020E4600F0100581
:1008B000D4F8000240F00400C4F80002102004F54F
:1008C000007400F067F8206940F007002061206A9A
:1008D00020F00F0030432062206920F007003843E9
:1008E0002061A4F5007400F01BFB002D05D1D4F8A5
:1008F000000220F00400C4F80002BDE8F08100000E
:10090000F0B510F47F3F2ED04FF08043D3F8F43190
:10091000DFF878C0DFB21D4BC0F381440C3B6FEAB7
:1009200090450CF1040603EB8403012F02D0022C46
:100930000DD001E0022C02D0AC070AD00AE0C3437C
:10094000DC06134B06D000F01F041D2C02D06346BA
:1009500000E033461C68C0F38725C0F34416B54059
:10096000AC4314431C60420E52070ED0084BC0F338
:100970000172183B03EB82021368C0F34264C0F3B8
:1009800004508440A3430B431360F0BD2C0200408D
:100990002802004030B5012405460849A20705E0B9
:1009A000081EA1F1010101DC002404E0D2F850325C
:1009B00035EA0300F4D1204630BD000080F5200068
:1009C00002490120C1F8F8007047000000300440DF
:1009D00002490220C1F8F8007047000000300440CE
:1009E00002490420C1F8F8007047000000300440BC
:1009F00010B500EB810050F8801F044C21400160CD
:100A000001681A431143016010BD0000C0FFE0FF00
:100A1000026D22F480720265026D41F001010A4309
:100A20000265D0F81011C907FBD0704700EB8100B8
:100A300050F8801F21F07F410160016841EA0261A6
:100A400001607047F0B500230127032507FA03F47E
:100A50008C4309D106685C0005FA04FC26EA0C0602
:100A600002FA04F4264306605B1C102BEED3F0BDA3
:100A7000044603A000F0EEFB204600F0BDFEFEE7BA
:100A8000496E2048617264204661756C742048612B
:100A90006E646C65720A000010B5094C01221146A3
:100AA0002046FFF7CFFF012202212046FFF7CAFFB1
:100AB00020460122BDE810400421FFF7C3BF00001B
:100AC000C041004000F01F02012191404009800018
:100AD00000F1E020C0F80011704701238B404AB1BB
:100AE000012A0DD0022A04D1D0F838141943C0F8D5
:100AF00038147047D0F818141943C0F81814704708
:100B000000EB0110016821F08001016070470000D6
:100B100070B5164908684FF00405C20708D00C1DCF
:100B20002068400702D512A000F094FB256070BD3C
:100B3000820710D50D4908310868400709D50F48CC
:100B4000026942F0080202610D48026882F0010267
:100B500002600D6070BD8005FCD54FF480600860B8
:100B6000BDE8704007A000F075BB00001C84004089
:100B70004142545354530D0A00000000300000203D
:100B8000C8490040524551544F460D0A000000002C
:100B90007CB5022000F0A0F91A4D0421284600F08F
:100BA00037F804239A020221284600F065F8002451
:100BB0001549CDE900144FF44073144A0221284628
:100BC00000F049F80023322202212846009400F068
:100BD00065F8002304220221284600F031F80022A3
:100BE00002212846FFF779FF2820FFF76BFF02213B
:100BF000284600F0F3F805484C38016D41F40061D7
:100C000001657CBD008000404C0000204C30044059
:100C100070B50022094D0126134606FA02F40C4273
:100C200003D000EB02142360AB54521C102AF4D3FF
:100C3000D0F800240A43C0F8002470BD54000020FE
:100C400000EB0110016821F07401016001681A4392
:100C500011430160704730B500EB0110DDE9034539
:100C600042608460016821F47061016001682B4377
:100C70001943016030BD000010B500EB01100168A0
:100C80004CF6FF74214001600168034C04EB034300
:100C900013431943016010BD0000FFFF30B54D4DF7
:100CA000039C10296A547DD2DFE801F00810172058
:100CB000272F363F464E555E656D7489D0F88054B7
:100CC00025F07F051543C0F880546BE0D0F88054C0
:100CD00025F4FE4545EA022205E0D0F8805425F4CB
:100CE000FE0545EA0242C0F880245BE0D0F880545B
:100CF00025F0FE4545EA0262F5E7D0F8845425F078
:100D00007F051543C0F884544CE0D0F8845425F492
:100D1000FE4545EA022205E0D0F8845425F4FE059C
:100D200045EA0242C0F884243CE0D0F8845425F01F
:100D3000FE4545EA0262F5E7D0F8885425F07F05C4
:100D40001543C0F888542DE0D0F8885425F4FE45AA
:100D500045EA022205E0D0F8885425F4FE0545EA6C
:100D60000242C0F888241DE0D0F8885425F0FE45E2
:100D700045EA0262F5E7D0F88C5425F07F0515436B
:100D8000C0F88C540EE0D0F88C5425F4FE4545EAAA
:100D9000022205E0D0F88C5425F4FE0545EA024213
:100DA000C0F88C2400EB0110016821F003016BB145
:100DB000891C016008490968611AC16030BDD0F81A
:100DC0008C5425F0FE4545EA0262E9E7491C0160C2
:100DD00030BD0000540000203C840040044A525CB6
:100DE000002A03D101228A40C0F80824704700007D
:100DF0005400002070B55920840716218822C4F8B9
:100E00000001C4F80011C4F80021D4F80031002B0F
:100E1000F5D04FF04025D5F8400120F0F000C5F89E
:100E200040010120FFF744FC0120FFF7B3FD2748F4
:100E3000FFF7F2FC1120C4F83402254E3046FFF7CC
:100E40007FFB002211463046FFF75AFD214E304607
:100E5000FFF776FB4FF4E02200213046FFF750FD0C
:100E60000120FFF76DFB00F0BBF800F0C9F800F0BF
:100E700057F8E06B20F47F00E063E06B40F4CC00B7
:100E8000E063286C20F47F102864A06B20F0704091
:100E9000A063A06B40F08050A063E06B6FF30B0089
:100EA000E063E06B40F211110843E063686C40F0CE
:100EB000F0606864E06940F00100E061002000F04B
:100EC00017F80020C4F8000170BD000000B0710BDD
:100ED000103D80571CFE03400121044A814002EB73
:100EE000106002680A438A430260704708000040AD
:100EF0004FF080418A6A22F01F0202438A627047E3
:100F000006498A691202FCD40A2804D10D220A601B
:100F10008A691202FCD40860704700000000074094
:100F200010B5FFF751FC0E4A4FF080439060D3F8A4
:100F3000101201F00701022903D002F10C0050F851
:100F40002100D3F8201201F00F01491CB0FBF1F091
:100F50000449106008444900B0FBF1F0506010BD36
:100F60000000002020A107001A48016841F4700128
:100F700001601948C16C21F00F0141F00801C16402
:100F80004FF08040D0F8981241F48021C0F89812B8
:100F9000D0F8081241F00201C0F808120F49D1F848
:100FA000042102F0F732C1F80421D1F8082102F03F
:100FB000F732C1F80821D0F8081221F00201C0F878
:100FC00008124FF04020D0F8401121F0F001C0F895
:100FD0004011704788ED00E000C000400010044060
:100FE00010B5064C2046FFF7ABFA2046BDE810408E
:100FF00000224FF40071FFF783BC00000200805E06
:1010000010B5064C2046FFF79BFA2046BDE810407D
:1010100000224FF4E041FFF773BC00000300C05E04
:1010200010B50A4C4FF47A724FF00061204600F080
:101030004BF8206840F0005020602120FFF742FD6F
:10104000206840F08040206010BD00000001054095
:1010500010B588B00446202217496846FFF716F9F4
:10106000164A174B9003944204D1D0F81402C0F3EF
:10107000022110E09C4204D1D0F81402C0F30231E6
:1010800009E01049D0F814028C4202D1C0F30241A9
:1010900001E0C0F30251022903D05DF8210008B03D
:1010A00010BD944201D09C4202D1FFF727FBF6E726
:1010B000FFF756FBF3E70000D018000000000540E2
:1010C000000105400010054070B516460D46044667
:1010D000FFF7BEFF0023B6EB500F01D9022206E056
:1010E000B0FBF6F2130E02D0591CB2FBF1F21D4315
:1010F000256062605B1C5A43B0FBF2F070BD0000DB
:101100000B488168C1F3000100290FD001218160E3
:1011100008490888421C0A80B0F57A7F06D9002069
:1011200008800548016881F00101016070470000F6
:101130000001054030000020C04900402DE9FF417A
:1011400004463C480F4600250FC88DE80F003A4979
:101150002E464FF080408C4206D1D0F81412D0F8C1
:101160002002C1F301652AE034498C4206D1D0F84F
:101170001412D0F82002C1F381652BE030498C4273
:1011800008D1D0F81C12D0F83002C1F3016500F08C
:101190000F0621E02B498C4208D1D0F81C12D0F860
:1011A0003002C1F38165C0F3031615E026498C4275
:1011B00008D1D0F81C12D0F83002C1F30175C0F389
:1011C000032609E021498C4206D1D0F81C12D0F840
:1011D00030028D0FC0F30336002020630320E0604F
:1011E000A0681B490840A060E846012D02D1FFF726
:1011F000EBFA0190002F1AD058F82510761CB1FB9D
:10120000F6F000EB5700B0FBF7F0801EB0F5803F22
:101210000AD3B1FBF6F000EBC700B0FBF7F06FF0BC
:10122000010101EB101001E040F040506062BDE8A8
:10123000FF810000A01800000000074000100740D8
:1012400000200740003007400040074000500740A2
:101250000FFFF0FF0FB4054B10B503A9044A029825
:1012600000F018F810BC5DF814FB0000F716000041
:101270002C00002002E008C8121F08C1002AFAD181
:1012800070477047002001E001C1121F002AFBD106
:10129000704700002DE9FF4F8DB00F460546002630
:1012A00006E025280BD0DDE90F1290476D1C761C57
:1012B00028780028F5D111B03046BDE8F08F002421
:1012C000A246A1460122EC4900E0044315F8013F83
:1012D000203B02FA03F00842F7D128782A2810D0E0
:1012E0006FF02F022878A0F13001092914D80AEBF9
:1012F0008A0102EB410144F0020400EB010A6D1C7B
:10130000F0E701CF5FEA000A03D544F40054CAF1C4
:10131000000A44F002046D1C28782E2817D115F815
:10132000010F44F004042A280ED06FF02F02287811
:10133000A0F1300109290AD809EB890102EB41012A
:1013400000EB01096D1CF2E757F8049B6D1C28782F
:101350006C280FD006DC4C2817D068280DD06A28DE
:1013600014D104E0742810D07A280FD10DE044F491
:1013700000140AE044F4801401E044F44014697855
:10138000814202D104F580146D1C6D1C2A786E2AEE
:101390001FD00CDC632A31D004DC002A8BD0582A01
:1013A00011D1A3E0642A68D0692A0CD165E0732AC0
:1013B0002ED004DC6F2A73D0702A04D19BE0752AEA
:1013C0006FD0782A6ED01046DDE90F129047761C58
:1013D00050E1C4F30250022806D0032809D00428A3
:1013E00001CF09D0066045E101CFF117C0E90061E6
:1013F00040E101CF06803DE106703BE117F8040BA8
:101400008DF8000000208DF80100EB46012003E07C
:1014100057F804BB4FF0FF3061074FF0000102D4D2
:101420000DE008F10101884649450FDA8045F8DBF7
:101430001BF808100029F4D108E008F101018846E2
:101440008142FADB1BF808100029F6D1DDE90F23F1
:10145000AAEB08008146214600F036F9304400EB43
:10146000080604E0DDE90F121BF8010B9047B8F104
:101470000108F7D221464846F7E00A21C4F3025397
:101480004FF0000B0891022B04D001CFC117032BA2
:1014900009D00AE0FF1D27F00707F7E8020108E07E
:1014A00032E01FE020E000B2C117042B01D140B2AE
:1014B000C117031E71F1000307DA4FF0000CD0EBE7
:1014C0000C006CEB01012D2302E0230504D52B2336
:1014D0008DF82430012303E0E30701D02023F7E750
:1014E000984658E00A2110E010210EE010204FF03D
:1014F000000B08900CE010214FF0000B44F00404A6
:101500004FF00809089103E008214FF0000B089103
:10151000C4F30253022B04D001CF0021032B06D0C9
:1015200006E0FF1D27F00707F7E8020103E080B29D
:10153000042B00D1C0B24FF0000823072BD5702A2E
:1015400007D0DDF820C08CF0100C5CEA0B0C05D045
:101550000EE040238DF82430012308E050EA010317
:1015600006D030238DF824308DF8252002239846AC
:10157000DDF820C08CF0080C5CEA0B0C0BD150EAB3
:10158000010301D1630706D530238DF824304FF0D5
:101590000108A9F10109582A04D038A20B9208AA1F
:1015A0000A920BE03AA2F9E75B46089AFEF780FE42
:1015B0000B9B9B5C0A9A521E0A92137050EA01021E
:1015C000F2D10A98ADEB000000F1200B600702D5C4
:1015D00024F4803401E04FF00109D94502DDA9EB84
:1015E0000B0000E0002000EB0B0141440890AAEB47
:1015F000010AE00306D4DDE90F232146504600F03E
:1016000063F806444FF0000908E009A911F8090041
:10161000DDE90F12904709F10109761CC145F4DBA1
:10162000E0030CD5DDE90F232146504600F04CF8CD
:10163000064404E0DDE90F1230209047761C08993B
:10164000481E08900029F5DC08E00A980A990078FD
:10165000491C0A91DDE90F129047761CBBF100018D
:10166000ABF1010BF1DC21465046DDE90F2300F020
:1016700019F806446D1C1BE609280100303132338D
:1016800034353637383961626364656600000000BE
:1016900030313233343536373839414243444546A8
:1016A000000000002DE9F041044600251E461746C3
:1016B000880404D405E039462020B0476D1C641E20
:1016C000F9D52846BDE8F0812DE9F0410446002512
:1016D0001E469046C80301D5302700E02027880425
:1016E00004D505E041463846B0476D1C641EF9D567
:1016F0002846BDE8F08110B50446FFF701FC2046FE
:1017000010BD0000FFF776FB4FF4E1311748FFF7FB
:1017100015FDFEF7D5FF014615A0FFF79BFDFEF76F
:10172000D7FF014619A0FFF795FDFEF7DBFF014645
:101730001CA0FFF78FFDFEF7E1FF01461FA0FFF79A
:1017400089FDFFF70DF8014623A0FFF783FDFFF7A2
:10175000A3F9FFF765FC274C206880F001002060AA
:10176000FEF796FEFEF708FEF6E7000000000740D1
:101770000D0A434C4B5F4765744350554672657183
:10178000203A202538640D0A00000000434C4B5FCE
:1017900047657448585446726571203A202538646C
:1017A0000D0A0000434C4B5F4765744C5854467219
:1017B0006571203A202538640D0A0000434C4B5FC8
:1017C00047657450434C4B3046726571203A202572
:1017D00038640D0A00000000434C4B5F47657450AD
:1017E000434C4B3146726571203A202538640D0A0E
:1017F00000000000C449004010B50446016810A074
:10180000FFF728FD11A06168FFF724FD12A0A16871
:10181000FFF720FD13A0E168FFF71CFD14A021696C
:10182000FFF718FD15A06169FFF714FD16A0A16967
:10183000FFF710FDE169BDE8104016A0FFF70ABDF3
:10184000723020203D20307825780A007231202027
:101850003D20307825780A00723220203D203078F3
:1018600025780A00723320203D20307825780A0040
:10187000723132203D20307825780A006C722020A9
:101880003D20307825780A00706320203D20307894
:1018900025780A00707372203D20307825780A0080
:1018A000001BB7000000000000800000001BB70014
:1018B000001BB7000000000000800000001BB70004
:1018C000001BB7000000000000800000001BB700F4
:1018D000001BB700008000000000000000000000B6
:1018E000000000001027000000000000001BB700EF
:1018F00010190000000000205400000074120000C5
:101900006419000054000020140800008412000034
:10191000001BB7000C000000001BB700001BB70045
:101920000080000000000000102700000000000000
:101930000000000000000000001BB70000000000D5
:101940000000000000000000000000000000000097
:101950000000000000000000000000000000000087
:041960000000000083
:0400000500000225D0
:00000001FF
